:100000000C9462000C9481000C9481000C9481008B
:100010000C9481000C9481000C9481000C9481005C
:100020000C9481000C9481000C9481000C9481004C
:100030000C9481000C94D0000C9481000C948100ED
:100040000C9481000C9481000C9481000C9481002C
:100050000C9481000C9481000C9481000C9481001C
:100060000C9481000C9481000C9481000C9481000C
:100070000C9481000C9481000C9481000C948100FC
:100080000C9481000C9481000C948100E001F0013B
:10009000090224023F025A02750291029502990256
:1000A0009D02A102A502A902B802BF02C602CD02AA
:1000B000D402DB02E202F102F502F902FD020103C1
:1000C0000503090311241FBECFEFD0E4DEBFCDBF6F
:1000D00011E0A0E0B1E0E8E3F9E000E00BBF02C00E
:1000E00007900D92A432B107D9F711E0A4E2B1E074
:1000F00001C01D92A333B107E1F70E940D030C94D8
:100100009A040C940000CF93C82F8A3019F48DE024
:100110000E9483009091C00095FFFCCFC093C60061
:1001200080E090E0CF91089581E080932B010895C5
:100130006093020170930301809304019093050181
:1001400060932701709328018093290190932A01DD
:1001500008958BE0809381008DE790E09093890073
:100160008093880082E080936F0010928500109247
:1001700084008091020190910301A0910401B0914B
:1001800005018093270190932801A0932901B09342
:100190002A018FB780688FBF08951092810008955B
:1001A0001F920F920FB60F9211240BB60F922F933E
:1001B0003F934F935F936F937F938F939F93AF93EF
:1001C000BF93EF93FF938091270190912801A09115
:1001D0002901B0912A010197A109B1098093270152
:1001E00090932801A0932901B0932A01892B8A2B8F
:1001F0008B2B91F40E949400809102019091030155
:10020000A0910401B09105018093270190932801EA
:10021000A0932901B0932A01FF91EF91BF91AF9173
:100220009F918F917F916F915F914F913F912F910E
:100230000F900BBE0F900FBE0F901F90189540E0CF
:1002400050E00CC000002F5F3F4F02C020E030E0C4
:10025000273063E03607B4F34F5F5F4F4817590705
:10026000ACF308955E9888B95F9A00005F9882E0C9
:1002700090E00E941F01089581E00E9432010895DC
:1002800084E690E00E941F0188E30E94320186E02C
:100290000E9432018FE00E94320181E00E9432010F
:1002A0008AE090E00E941F0108955E9A88B95F9AE3
:1002B00000005F9881E090E00E941F010895813165
:1002C00020F481580E943201089581550E94320124
:1002D0000895EF92FF920F931F93CF93DF93182F00
:1002E000EB010E943C010EC001E0010F812F0E9432
:1002F0005F017E018FEFE81AF80A88810E9455019C
:10030000102FE70188818111EFCFDF91CF911F91ED
:100310000F91FF90EF90089580912C0190912D0105
:1003200081309105A1F018F00297C1F026C08091AC
:100330003201882339F081E090E090932D01809381
:100340002C011BC010922D0110922C0116C082E0CE
:1003500090E090932D0180932C010FC08091320189
:10036000811105C010922D0110922C0106C082E06F
:1003700090E090932D0180932C0180912C0190911D
:100380002D018130910541F018F0029749F0089550
:1003900081E080932501089581E0809325010895EF
:1003A00081E0809325010895E0912E01F0912F01C5
:1003B000E730F10508F0AAC0EA5BFF4F0C947B041C
:1003C00080912601823039F481E090E090932F01F2
:1003D00080932E019BC010922F0110922E0196C087
:1003E00080912601813029F410922F0110922E0164
:1003F0008DC0823039F482E090E090932F01809399
:100400002E0184C081E090E090932F0180932E0113
:100410007DC080912601813039F481E090E0909395
:100420002F0180932E0172C0823039F483E090E076
:1004300090932F0180932E0169C082E090E0909309
:100440002F0180932E0162C080912601813039F402
:1004500082E090E090932F0180932E0157C082306C
:1004600039F484E090E090932F0180932E014EC0E8
:1004700083E090E090932F0180932E0147C08091FC
:100480002601813039F483E090E090932F0180932E
:100490002E013CC0823039F485E090E090932F012A
:1004A00080932E0133C084E090E090932F018093DD
:1004B0002E012CC080912601813039F484E090E037
:1004C00090932F0180932E0121C0823039F486E071
:1004D00090E090932F0180932E0118C085E090E06A
:1004E00090932F0180932E0111C0809126018130BD
:1004F00039F485E090E090932F0180932E0106C09F
:1005000086E090E090932F0180932E01E0912E01E0
:10051000F0912F01E730F105F8F4E35BFF4F0C9405
:100520007B0481E080930001089582E080930001C4
:10053000089583E080930001089584E08093000192
:10054000089585E080930001089586E0809300017E
:10055000089587E0809300010895E0913001F091C3
:100560003101E730F10590F5EC5AFF4F0C947B0414
:1005700081E090E0909331018093300127C082E0C8
:1005800090E0909331018093300120C083E090E0AF
:10059000909331018093300119C084E090E09093F2
:1005A00031018093300112C085E090E090933101D9
:1005B000809330010BC086E090E0909331018093EE
:1005C000300104C01092310110923001E0913001ED
:1005D000F0913101E730F105F8F4E55AFF4F0C9442
:1005E0007B0481E080930101089582E08093010102
:1005F000089583E080930101089584E080930101D0
:10060000089585E080930101089586E080930101BB
:10061000089587E0809301010895CF93DF93CDB7CC
:10062000DEB760970FB6F894DEBF0FBECDBF11B82E
:100630008FEF82B987B918B88AB91BB888E0E4E1AE
:10064000F1E0DE01119601900D928A95E1F788E0C4
:10065000ECE1F1E0DE01199601900D928A95E1F747
:100660008EE290E00E948404811103C01092240164
:1006700018C0813019F48093240113C0823019F41A
:10068000809324010EC0833019F48093240109C0A3
:10069000843019F48093240104C0853011F48093D0
:1006A000240160E971E080E090E00E9498000E94DF
:1006B000A90010922D0110922C0183E090E09093FC
:1006C0002F0180932E0190933101809330010E947D
:1006D00040010E943C0181E00E945F0180B1809551
:1006E0008470809332010E948C010E94D4010E9488
:1006F000AD020E943C01809101019091000189139B
:1007000025C090912501913009F581E00E945F019B
:1007100086E50E94550189E60E94550183E60E9404
:10072000550184E70E9455018FE60E94550182E73A
:100730000E94550189E70E9455018091240185306E
:1007400009F48CC08F5F8093240188C0813039F414
:100750000E945F018C2F8F5F0E94550135C082304F
:1007600039F40E945F018C2F8F5F0E9455012CC0CD
:10077000833039F40E945F018C2F8F5F0E945501F6
:1007800023C0843039F40E945F018C2F8F5F0E9458
:1007900055011AC0853039F40E945F018C2F8F5F9C
:1007A0000E94550111C0863039F40E945F018C2FE0
:1007B0008F5F0E94550108C0873031F40E945F01AD
:1007C0008C2F8F5F0E94550181E10E945F01809113
:1007D0000001813041F481E10E945F018C2F875F2D
:1007E0000E9455013BC0823041F482E10E945F01CA
:1007F0008C2F875F0E94550131C0833041F483E123
:100800000E945F018C2F875F0E94550127C08430B2
:1008100041F484E10E945F018C2F875F0E945501A3
:100820001DC0853041F485E10E945F018C2F875FF8
:100830000E94550113C0863041F486E10E945F0199
:100840008C2F875F0E94550109C0873039F487E1FA
:100850000E945F018C2F875F0E94550180E10E94FA
:100860005F0180912401811109C080E30E9455013C
:1008700060E08EE290E00E948C0436C0813049F442
:1008800081E30E94550161E08EE290E00E948C04B9
:100890002BC0823049F482E30E94550162E08EE26F
:1008A00090E00E948C0420C0833049F483E30E94CE
:1008B000550163E08EE290E00E948C0415C0843004
:1008C00049F484E30E94550164E08EE290E00E94C6
:1008D0008C040AC0853041F485E30E94550165E02F
:1008E0008EE290E00E948C0480912B018823E1F33A
:1008F00010922B01F3CEEE0FFF1F0024001C0BBE45
:100900000790F691E02D0994F999FECF92BD81BD33
:10091000F89A992780B50895262FF999FECF1FBA26
:1009200092BD81BD20BD0FB6F894FA9AF99A0FBE18
:0809300001960895F894FFCF31
:100938000404010000000000000200000000830021
:1009480000000000000A15110A040000040E0E0E33
:040958001F00040078
:00000001FF
